{
  "_format": "hh-sol-artifact-1",
  "contractName": "Minter",
  "sourceName": "contracts/Minter.sol",
  "abi": [
    {
      "inputs": [],
      "stateMutability": "nonpayable",
      "type": "constructor"
    },
    {
      "anonymous": false,
      "inputs": [
        {
          "indexed": true,
          "internalType": "address",
          "name": "owner",
          "type": "address"
        },
        {
          "indexed": true,
          "internalType": "address",
          "name": "approved",
          "type": "address"
        },
        {
          "indexed": true,
          "internalType": "uint256",
          "name": "tokenId",
          "type": "uint256"
        }
      ],
      "name": "Approval",
      "type": "event"
    },
    {
      "anonymous": false,
      "inputs": [
        {
          "indexed": true,
          "internalType": "address",
          "name": "owner",
          "type": "address"
        },
        {
          "indexed": true,
          "internalType": "address",
          "name": "operator",
          "type": "address"
        },
        {
          "indexed": false,
          "internalType": "bool",
          "name": "approved",
          "type": "bool"
        }
      ],
      "name": "ApprovalForAll",
      "type": "event"
    },
    {
      "anonymous": false,
      "inputs": [
        {
          "indexed": true,
          "internalType": "address",
          "name": "from",
          "type": "address"
        },
        {
          "indexed": true,
          "internalType": "address",
          "name": "to",
          "type": "address"
        },
        {
          "indexed": true,
          "internalType": "uint256",
          "name": "tokenId",
          "type": "uint256"
        }
      ],
      "name": "Transfer",
      "type": "event"
    },
    {
      "inputs": [
        {
          "internalType": "string",
          "name": "tokenUri",
          "type": "string"
        },
        {
          "internalType": "address payable",
          "name": "_recieverAdd",
          "type": "address"
        }
      ],
      "name": "NFTminter",
      "outputs": [],
      "stateMutability": "nonpayable",
      "type": "function"
    },
    {
      "inputs": [
        {
          "internalType": "address",
          "name": "to",
          "type": "address"
        },
        {
          "internalType": "uint256",
          "name": "tokenId",
          "type": "uint256"
        }
      ],
      "name": "approve",
      "outputs": [],
      "stateMutability": "nonpayable",
      "type": "function"
    },
    {
      "inputs": [
        {
          "internalType": "address",
          "name": "owner",
          "type": "address"
        }
      ],
      "name": "balanceOf",
      "outputs": [
        {
          "internalType": "uint256",
          "name": "",
          "type": "uint256"
        }
      ],
      "stateMutability": "view",
      "type": "function"
    },
    {
      "inputs": [
        {
          "internalType": "uint256",
          "name": "tokenId",
          "type": "uint256"
        }
      ],
      "name": "getApproved",
      "outputs": [
        {
          "internalType": "address",
          "name": "",
          "type": "address"
        }
      ],
      "stateMutability": "view",
      "type": "function"
    },
    {
      "inputs": [
        {
          "internalType": "address",
          "name": "owner",
          "type": "address"
        },
        {
          "internalType": "address",
          "name": "operator",
          "type": "address"
        }
      ],
      "name": "isApprovedForAll",
      "outputs": [
        {
          "internalType": "bool",
          "name": "",
          "type": "bool"
        }
      ],
      "stateMutability": "view",
      "type": "function"
    },
    {
      "inputs": [],
      "name": "name",
      "outputs": [
        {
          "internalType": "string",
          "name": "",
          "type": "string"
        }
      ],
      "stateMutability": "view",
      "type": "function"
    },
    {
      "inputs": [
        {
          "internalType": "uint256",
          "name": "tokenId",
          "type": "uint256"
        }
      ],
      "name": "ownerOf",
      "outputs": [
        {
          "internalType": "address",
          "name": "",
          "type": "address"
        }
      ],
      "stateMutability": "view",
      "type": "function"
    },
    {
      "inputs": [
        {
          "internalType": "address",
          "name": "from",
          "type": "address"
        },
        {
          "internalType": "address",
          "name": "to",
          "type": "address"
        },
        {
          "internalType": "uint256",
          "name": "tokenId",
          "type": "uint256"
        }
      ],
      "name": "safeTransferFrom",
      "outputs": [],
      "stateMutability": "nonpayable",
      "type": "function"
    },
    {
      "inputs": [
        {
          "internalType": "address",
          "name": "from",
          "type": "address"
        },
        {
          "internalType": "address",
          "name": "to",
          "type": "address"
        },
        {
          "internalType": "uint256",
          "name": "tokenId",
          "type": "uint256"
        },
        {
          "internalType": "bytes",
          "name": "data",
          "type": "bytes"
        }
      ],
      "name": "safeTransferFrom",
      "outputs": [],
      "stateMutability": "nonpayable",
      "type": "function"
    },
    {
      "inputs": [
        {
          "internalType": "address",
          "name": "operator",
          "type": "address"
        },
        {
          "internalType": "bool",
          "name": "approved",
          "type": "bool"
        }
      ],
      "name": "setApprovalForAll",
      "outputs": [],
      "stateMutability": "nonpayable",
      "type": "function"
    },
    {
      "inputs": [
        {
          "internalType": "bytes4",
          "name": "interfaceId",
          "type": "bytes4"
        }
      ],
      "name": "supportsInterface",
      "outputs": [
        {
          "internalType": "bool",
          "name": "",
          "type": "bool"
        }
      ],
      "stateMutability": "view",
      "type": "function"
    },
    {
      "inputs": [],
      "name": "symbol",
      "outputs": [
        {
          "internalType": "string",
          "name": "",
          "type": "string"
        }
      ],
      "stateMutability": "view",
      "type": "function"
    },
    {
      "inputs": [
        {
          "internalType": "uint256",
          "name": "tokenId",
          "type": "uint256"
        }
      ],
      "name": "tokenURI",
      "outputs": [
        {
          "internalType": "string",
          "name": "",
          "type": "string"
        }
      ],
      "stateMutability": "view",
      "type": "function"
    },
    {
      "inputs": [
        {
          "internalType": "address",
          "name": "from",
          "type": "address"
        },
        {
          "internalType": "address",
          "name": "to",
          "type": "address"
        },
        {
          "internalType": "uint256",
          "name": "tokenId",
          "type": "uint256"
        }
      ],
      "name": "transferFrom",
      "outputs": [],
      "stateMutability": "nonpayable",
      "type": "function"
    }
  ],
  "bytecode": "0x60806040523480156200001157600080fd5b506040518060400160405280600e81526020017f4e46544d61726b6574706c6163650000000000000000000000000000000000008152506040518060400160405280600481526020017f4e46544d0000000000000000000000000000000000000000000000000000000081525081600090816200008f919062000365565b508060019081620000a1919062000365565b50505033600760006101000a81548173ffffffffffffffffffffffffffffffffffffffff021916908373ffffffffffffffffffffffffffffffffffffffff1602179055506200044c565b600081519050919050565b7f4e487b7100000000000000000000000000000000000000000000000000000000600052604160045260246000fd5b7f4e487b7100000000000000000000000000000000000000000000000000000000600052602260045260246000fd5b600060028204905060018216806200016d57607f821691505b60208210810362000183576200018262000125565b5b50919050565b60008190508160005260206000209050919050565b60006020601f8301049050919050565b600082821b905092915050565b600060088302620001ed7fffffffffffffffffffffffffffffffffffffffffffffffffffffffffffffffff82620001ae565b620001f98683620001ae565b95508019841693508086168417925050509392505050565b6000819050919050565b6000819050919050565b600062000246620002406200023a8462000211565b6200021b565b62000211565b9050919050565b6000819050919050565b620002628362000225565b6200027a62000271826200024d565b848454620001bb565b825550505050565b600090565b6200029162000282565b6200029e81848462000257565b505050565b5b81811015620002c657620002ba60008262000287565b600181019050620002a4565b5050565b601f8211156200031557620002df8162000189565b620002ea846200019e565b81016020851015620002fa578190505b6200031262000309856200019e565b830182620002a3565b50505b505050565b600082821c905092915050565b60006200033a600019846008026200031a565b1980831691505092915050565b600062000355838362000327565b9150826002028217905092915050565b6200037082620000eb565b67ffffffffffffffff8111156200038c576200038b620000f6565b5b62000398825462000154565b620003a5828285620002ca565b600060209050601f831160018114620003dd5760008415620003c8578287015190505b620003d4858262000347565b86555062000444565b601f198416620003ed8662000189565b60005b828110156200041757848901518255600182019150602085019450602081019050620003f0565b8683101562000437578489015162000433601f89168262000327565b8355505b6001600288020188555050505b505050505050565b612d2d806200045c6000396000f3fe608060405234801561001057600080fd5b50600436106100ea5760003560e01c806370a082311161008c578063a5b4bac211610066578063a5b4bac21461025b578063b88d4fde14610277578063c87b56dd14610293578063e985e9c5146102c3576100ea565b806370a08231146101f157806395d89b4114610221578063a22cb4651461023f576100ea565b8063095ea7b3116100c8578063095ea7b31461016d57806323b872dd1461018957806342842e0e146101a55780636352211e146101c1576100ea565b806301ffc9a7146100ef57806306fdde031461011f578063081812fc1461013d575b600080fd5b61010960048036038101906101049190611b47565b6102f3565b6040516101169190611b8f565b60405180910390f35b6101276103d5565b6040516101349190611c3a565b60405180910390f35b61015760048036038101906101529190611c92565b610467565b6040516101649190611d00565b60405180910390f35b61018760048036038101906101829190611d47565b6104ad565b005b6101a3600480360381019061019e9190611d87565b6105c4565b005b6101bf60048036038101906101ba9190611d87565b610624565b005b6101db60048036038101906101d69190611c92565b610644565b6040516101e89190611d00565b60405180910390f35b61020b60048036038101906102069190611dda565b6106ca565b6040516102189190611e16565b60405180910390f35b610229610781565b6040516102369190611c3a565b60405180910390f35b61025960048036038101906102549190611e5d565b610813565b005b61027560048036038101906102709190612010565b610829565b005b610291600480360381019061028c919061210d565b6108ec565b005b6102ad60048036038101906102a89190611c92565b61094e565b6040516102ba9190611c3a565b60405180910390f35b6102dd60048036038101906102d89190612190565b610a60565b6040516102ea9190611b8f565b60405180910390f35b60007f80ac58cd000000000000000000000000000000000000000000000000000000007bffffffffffffffffffffffffffffffffffffffffffffffffffffffff1916827bffffffffffffffffffffffffffffffffffffffffffffffffffffffff191614806103be57507f5b5e139f000000000000000000000000000000000000000000000000000000007bffffffffffffffffffffffffffffffffffffffffffffffffffffffff1916827bffffffffffffffffffffffffffffffffffffffffffffffffffffffff1916145b806103ce57506103cd82610af4565b5b9050919050565b6060600080546103e4906121ff565b80601f0160208091040260200160405190810160405280929190818152602001828054610410906121ff565b801561045d5780601f106104325761010080835404028352916020019161045d565b820191906000526020600020905b81548152906001019060200180831161044057829003601f168201915b5050505050905090565b600061047282610b5e565b6004600083815260200190815260200160002060009054906101000a900473ffffffffffffffffffffffffffffffffffffffff169050919050565b60006104b882610644565b90508073ffffffffffffffffffffffffffffffffffffffff168373ffffffffffffffffffffffffffffffffffffffff1603610528576040517f08c379a000000000000000000000000000000000000000000000000000000000815260040161051f906122a2565b60405180910390fd5b8073ffffffffffffffffffffffffffffffffffffffff16610547610ba9565b73ffffffffffffffffffffffffffffffffffffffff161480610576575061057581610570610ba9565b610a60565b5b6105b5576040517f08c379a00000000000000000000000000000000000000000000000000000000081526004016105ac90612334565b60405180910390fd5b6105bf8383610bb1565b505050565b6105d56105cf610ba9565b82610c6a565b610614576040517f08c379a000000000000000000000000000000000000000000000000000000000815260040161060b906123c6565b60405180910390fd5b61061f838383610cff565b505050565b61063f838383604051806020016040528060008152506108ec565b505050565b60008061065083610ff8565b9050600073ffffffffffffffffffffffffffffffffffffffff168173ffffffffffffffffffffffffffffffffffffffff16036106c1576040517f08c379a00000000000000000000000000000000000000000000000000000000081526004016106b890612432565b60405180910390fd5b80915050919050565b60008073ffffffffffffffffffffffffffffffffffffffff168273ffffffffffffffffffffffffffffffffffffffff160361073a576040517f08c379a0000000000000000000000000000000000000000000000000000000008152600401610731906124c4565b60405180910390fd5b600360008373ffffffffffffffffffffffffffffffffffffffff1673ffffffffffffffffffffffffffffffffffffffff168152602001908152602001600020549050919050565b606060018054610790906121ff565b80601f01602080910402602001604051908101604052809291908181526020018280546107bc906121ff565b80156108095780601f106107de57610100808354040283529160200191610809565b820191906000526020600020905b8154815290600101906020018083116107ec57829003601f168201915b5050505050905090565b61082561081e610ba9565b8383611035565b5050565b61083360096111a1565b600061083f60096111b7565b905061084b82826111c5565b61085581846111e3565b60405180604001604052808281526020018373ffffffffffffffffffffffffffffffffffffffff16815250600860008381526020019081526020016000206000820151816000015560208201518160010160006101000a81548173ffffffffffffffffffffffffffffffffffffffff021916908373ffffffffffffffffffffffffffffffffffffffff160217905550905050505050565b6108fd6108f7610ba9565b83610c6a565b61093c576040517f08c379a0000000000000000000000000000000000000000000000000000000008152600401610933906123c6565b60405180910390fd5b61094884848484611250565b50505050565b606061095982610b5e565b6000600660008481526020019081526020016000208054610979906121ff565b80601f01602080910402602001604051908101604052809291908181526020018280546109a5906121ff565b80156109f25780601f106109c7576101008083540402835291602001916109f2565b820191906000526020600020905b8154815290600101906020018083116109d557829003601f168201915b505050505090506000610a036112ac565b90506000815103610a18578192505050610a5b565b600082511115610a4d578082604051602001610a35929190612520565b60405160208183030381529060405292505050610a5b565b610a56846112c3565b925050505b919050565b6000600560008473ffffffffffffffffffffffffffffffffffffffff1673ffffffffffffffffffffffffffffffffffffffff16815260200190815260200160002060008373ffffffffffffffffffffffffffffffffffffffff1673ffffffffffffffffffffffffffffffffffffffff16815260200190815260200160002060009054906101000a900460ff16905092915050565b60007f01ffc9a7000000000000000000000000000000000000000000000000000000007bffffffffffffffffffffffffffffffffffffffffffffffffffffffff1916827bffffffffffffffffffffffffffffffffffffffffffffffffffffffff1916149050919050565b610b678161132b565b610ba6576040517f08c379a0000000000000000000000000000000000000000000000000000000008152600401610b9d90612432565b60405180910390fd5b50565b600033905090565b816004600083815260200190815260200160002060006101000a81548173ffffffffffffffffffffffffffffffffffffffff021916908373ffffffffffffffffffffffffffffffffffffffff160217905550808273ffffffffffffffffffffffffffffffffffffffff16610c2483610644565b73ffffffffffffffffffffffffffffffffffffffff167f8c5be1e5ebec7d5bd14f71427d1e84f3dd0314c0f7b2291e5b200ac8c7c3b92560405160405180910390a45050565b600080610c7683610644565b90508073ffffffffffffffffffffffffffffffffffffffff168473ffffffffffffffffffffffffffffffffffffffff161480610cb85750610cb78185610a60565b5b80610cf657508373ffffffffffffffffffffffffffffffffffffffff16610cde84610467565b73ffffffffffffffffffffffffffffffffffffffff16145b91505092915050565b8273ffffffffffffffffffffffffffffffffffffffff16610d1f82610644565b73ffffffffffffffffffffffffffffffffffffffff1614610d75576040517f08c379a0000000000000000000000000000000000000000000000000000000008152600401610d6c906125b6565b60405180910390fd5b600073ffffffffffffffffffffffffffffffffffffffff168273ffffffffffffffffffffffffffffffffffffffff1603610de4576040517f08c379a0000000000000000000000000000000000000000000000000000000008152600401610ddb90612648565b60405180910390fd5b610df1838383600161136c565b8273ffffffffffffffffffffffffffffffffffffffff16610e1182610644565b73ffffffffffffffffffffffffffffffffffffffff1614610e67576040517f08c379a0000000000000000000000000000000000000000000000000000000008152600401610e5e906125b6565b60405180910390fd5b6004600082815260200190815260200160002060006101000a81549073ffffffffffffffffffffffffffffffffffffffff02191690556001600360008573ffffffffffffffffffffffffffffffffffffffff1673ffffffffffffffffffffffffffffffffffffffff168152602001908152602001600020600082825403925050819055506001600360008473ffffffffffffffffffffffffffffffffffffffff1673ffffffffffffffffffffffffffffffffffffffff16815260200190815260200160002060008282540192505081905550816002600083815260200190815260200160002060006101000a81548173ffffffffffffffffffffffffffffffffffffffff021916908373ffffffffffffffffffffffffffffffffffffffff160217905550808273ffffffffffffffffffffffffffffffffffffffff168473ffffffffffffffffffffffffffffffffffffffff167fddf252ad1be2c89b69c2b068fc378daa952ba7f163c4a11628f55a4df523b3ef60405160405180910390a4610ff38383836001611492565b505050565b60006002600083815260200190815260200160002060009054906101000a900473ffffffffffffffffffffffffffffffffffffffff169050919050565b8173ffffffffffffffffffffffffffffffffffffffff168373ffffffffffffffffffffffffffffffffffffffff16036110a3576040517f08c379a000000000000000000000000000000000000000000000000000000000815260040161109a906126b4565b60405180910390fd5b80600560008573ffffffffffffffffffffffffffffffffffffffff1673ffffffffffffffffffffffffffffffffffffffff16815260200190815260200160002060008473ffffffffffffffffffffffffffffffffffffffff1673ffffffffffffffffffffffffffffffffffffffff16815260200190815260200160002060006101000a81548160ff0219169083151502179055508173ffffffffffffffffffffffffffffffffffffffff168373ffffffffffffffffffffffffffffffffffffffff167f17307eab39ab6107e8899845ad3d59bd9653f200f220920489ca2b5937696c31836040516111949190611b8f565b60405180910390a3505050565b6001816000016000828254019250508190555050565b600081600001549050919050565b6111df828260405180602001604052806000815250611498565b5050565b6111ec8261132b565b61122b576040517f08c379a000000000000000000000000000000000000000000000000000000000815260040161122290612746565b60405180910390fd5b8060066000848152602001908152602001600020908161124b9190612912565b505050565b61125b848484610cff565b611267848484846114f3565b6112a6576040517f08c379a000000000000000000000000000000000000000000000000000000000815260040161129d90612a56565b60405180910390fd5b50505050565b606060405180602001604052806000815250905090565b60606112ce82610b5e565b60006112d86112ac565b905060008151116112f85760405180602001604052806000815250611323565b806113028461167a565b604051602001611313929190612520565b6040516020818303038152906040525b915050919050565b60008073ffffffffffffffffffffffffffffffffffffffff1661134d83610ff8565b73ffffffffffffffffffffffffffffffffffffffff1614159050919050565b600181111561148c57600073ffffffffffffffffffffffffffffffffffffffff168473ffffffffffffffffffffffffffffffffffffffff16146114005780600360008673ffffffffffffffffffffffffffffffffffffffff1673ffffffffffffffffffffffffffffffffffffffff16815260200190815260200160002060008282546113f89190612aa5565b925050819055505b600073ffffffffffffffffffffffffffffffffffffffff168373ffffffffffffffffffffffffffffffffffffffff161461148b5780600360008573ffffffffffffffffffffffffffffffffffffffff1673ffffffffffffffffffffffffffffffffffffffff16815260200190815260200160002060008282546114839190612ad9565b925050819055505b5b50505050565b50505050565b6114a28383611748565b6114af60008484846114f3565b6114ee576040517f08c379a00000000000000000000000000000000000000000000000000000000081526004016114e590612a56565b60405180910390fd5b505050565b60006115148473ffffffffffffffffffffffffffffffffffffffff16611965565b1561166d578373ffffffffffffffffffffffffffffffffffffffff1663150b7a0261153d610ba9565b8786866040518563ffffffff1660e01b815260040161155f9493929190612b62565b6020604051808303816000875af192505050801561159b57506040513d601f19601f820116820180604052508101906115989190612bc3565b60015b61161d573d80600081146115cb576040519150601f19603f3d011682016040523d82523d6000602084013e6115d0565b606091505b506000815103611615576040517f08c379a000000000000000000000000000000000000000000000000000000000815260040161160c90612a56565b60405180910390fd5b805181602001fd5b63150b7a0260e01b7bffffffffffffffffffffffffffffffffffffffffffffffffffffffff1916817bffffffffffffffffffffffffffffffffffffffffffffffffffffffff191614915050611672565b600190505b949350505050565b60606000600161168984611988565b01905060008167ffffffffffffffff8111156116a8576116a7611ea7565b5b6040519080825280601f01601f1916602001820160405280156116da5781602001600182028036833780820191505090505b509050600082602001820190505b60011561173d578080600190039150507f3031323334353637383961626364656600000000000000000000000000000000600a86061a8153600a858161173157611730612bf0565b5b049450600085036116e8575b819350505050919050565b600073ffffffffffffffffffffffffffffffffffffffff168273ffffffffffffffffffffffffffffffffffffffff16036117b7576040517f08c379a00000000000000000000000000000000000000000000000000000000081526004016117ae90612c6b565b60405180910390fd5b6117c08161132b565b15611800576040517f08c379a00000000000000000000000000000000000000000000000000000000081526004016117f790612cd7565b60405180910390fd5b61180e60008383600161136c565b6118178161132b565b15611857576040517f08c379a000000000000000000000000000000000000000000000000000000000815260040161184e90612cd7565b60405180910390fd5b6001600360008473ffffffffffffffffffffffffffffffffffffffff1673ffffffffffffffffffffffffffffffffffffffff16815260200190815260200160002060008282540192505081905550816002600083815260200190815260200160002060006101000a81548173ffffffffffffffffffffffffffffffffffffffff021916908373ffffffffffffffffffffffffffffffffffffffff160217905550808273ffffffffffffffffffffffffffffffffffffffff16600073ffffffffffffffffffffffffffffffffffffffff167fddf252ad1be2c89b69c2b068fc378daa952ba7f163c4a11628f55a4df523b3ef60405160405180910390a4611961600083836001611492565b5050565b6000808273ffffffffffffffffffffffffffffffffffffffff163b119050919050565b600080600090507a184f03e93ff9f4daa797ed6e38ed64bf6a1f01000000000000000083106119e6577a184f03e93ff9f4daa797ed6e38ed64bf6a1f01000000000000000083816119dc576119db612bf0565b5b0492506040810190505b6d04ee2d6d415b85acef81000000008310611a23576d04ee2d6d415b85acef81000000008381611a1957611a18612bf0565b5b0492506020810190505b662386f26fc100008310611a5257662386f26fc100008381611a4857611a47612bf0565b5b0492506010810190505b6305f5e1008310611a7b576305f5e1008381611a7157611a70612bf0565b5b0492506008810190505b6127108310611aa0576127108381611a9657611a95612bf0565b5b0492506004810190505b60648310611ac35760648381611ab957611ab8612bf0565b5b0492506002810190505b600a8310611ad2576001810190505b80915050919050565b6000604051905090565b600080fd5b600080fd5b60007fffffffff0000000000000000000000000000000000000000000000000000000082169050919050565b611b2481611aef565b8114611b2f57600080fd5b50565b600081359050611b4181611b1b565b92915050565b600060208284031215611b5d57611b5c611ae5565b5b6000611b6b84828501611b32565b91505092915050565b60008115159050919050565b611b8981611b74565b82525050565b6000602082019050611ba46000830184611b80565b92915050565b600081519050919050565b600082825260208201905092915050565b60005b83811015611be4578082015181840152602081019050611bc9565b60008484015250505050565b6000601f19601f8301169050919050565b6000611c0c82611baa565b611c168185611bb5565b9350611c26818560208601611bc6565b611c2f81611bf0565b840191505092915050565b60006020820190508181036000830152611c548184611c01565b905092915050565b6000819050919050565b611c6f81611c5c565b8114611c7a57600080fd5b50565b600081359050611c8c81611c66565b92915050565b600060208284031215611ca857611ca7611ae5565b5b6000611cb684828501611c7d565b91505092915050565b600073ffffffffffffffffffffffffffffffffffffffff82169050919050565b6000611cea82611cbf565b9050919050565b611cfa81611cdf565b82525050565b6000602082019050611d156000830184611cf1565b92915050565b611d2481611cdf565b8114611d2f57600080fd5b50565b600081359050611d4181611d1b565b92915050565b60008060408385031215611d5e57611d5d611ae5565b5b6000611d6c85828601611d32565b9250506020611d7d85828601611c7d565b9150509250929050565b600080600060608486031215611da057611d9f611ae5565b5b6000611dae86828701611d32565b9350506020611dbf86828701611d32565b9250506040611dd086828701611c7d565b9150509250925092565b600060208284031215611df057611def611ae5565b5b6000611dfe84828501611d32565b91505092915050565b611e1081611c5c565b82525050565b6000602082019050611e2b6000830184611e07565b92915050565b611e3a81611b74565b8114611e4557600080fd5b50565b600081359050611e5781611e31565b92915050565b60008060408385031215611e7457611e73611ae5565b5b6000611e8285828601611d32565b9250506020611e9385828601611e48565b9150509250929050565b600080fd5b600080fd5b7f4e487b7100000000000000000000000000000000000000000000000000000000600052604160045260246000fd5b611edf82611bf0565b810181811067ffffffffffffffff82111715611efe57611efd611ea7565b5b80604052505050565b6000611f11611adb565b9050611f1d8282611ed6565b919050565b600067ffffffffffffffff821115611f3d57611f3c611ea7565b5b611f4682611bf0565b9050602081019050919050565b82818337600083830152505050565b6000611f75611f7084611f22565b611f07565b905082815260208101848484011115611f9157611f90611ea2565b5b611f9c848285611f53565b509392505050565b600082601f830112611fb957611fb8611e9d565b5b8135611fc9848260208601611f62565b91505092915050565b6000611fdd82611cbf565b9050919050565b611fed81611fd2565b8114611ff857600080fd5b50565b60008135905061200a81611fe4565b92915050565b6000806040838503121561202757612026611ae5565b5b600083013567ffffffffffffffff81111561204557612044611aea565b5b61205185828601611fa4565b925050602061206285828601611ffb565b9150509250929050565b600067ffffffffffffffff82111561208757612086611ea7565b5b61209082611bf0565b9050602081019050919050565b60006120b06120ab8461206c565b611f07565b9050828152602081018484840111156120cc576120cb611ea2565b5b6120d7848285611f53565b509392505050565b600082601f8301126120f4576120f3611e9d565b5b813561210484826020860161209d565b91505092915050565b6000806000806080858703121561212757612126611ae5565b5b600061213587828801611d32565b945050602061214687828801611d32565b935050604061215787828801611c7d565b925050606085013567ffffffffffffffff81111561217857612177611aea565b5b612184878288016120df565b91505092959194509250565b600080604083850312156121a7576121a6611ae5565b5b60006121b585828601611d32565b92505060206121c685828601611d32565b9150509250929050565b7f4e487b7100000000000000000000000000000000000000000000000000000000600052602260045260246000fd5b6000600282049050600182168061221757607f821691505b60208210810361222a576122296121d0565b5b50919050565b7f4552433732313a20617070726f76616c20746f2063757272656e74206f776e6560008201527f7200000000000000000000000000000000000000000000000000000000000000602082015250565b600061228c602183611bb5565b915061229782612230565b604082019050919050565b600060208201905081810360008301526122bb8161227f565b9050919050565b7f4552433732313a20617070726f76652063616c6c6572206973206e6f7420746f60008201527f6b656e206f776e6572206f7220617070726f76656420666f7220616c6c000000602082015250565b600061231e603d83611bb5565b9150612329826122c2565b604082019050919050565b6000602082019050818103600083015261234d81612311565b9050919050565b7f4552433732313a2063616c6c6572206973206e6f7420746f6b656e206f776e6560008201527f72206f7220617070726f76656400000000000000000000000000000000000000602082015250565b60006123b0602d83611bb5565b91506123bb82612354565b604082019050919050565b600060208201905081810360008301526123df816123a3565b9050919050565b7f4552433732313a20696e76616c696420746f6b656e2049440000000000000000600082015250565b600061241c601883611bb5565b9150612427826123e6565b602082019050919050565b6000602082019050818103600083015261244b8161240f565b9050919050565b7f4552433732313a2061646472657373207a65726f206973206e6f74206120766160008201527f6c6964206f776e65720000000000000000000000000000000000000000000000602082015250565b60006124ae602983611bb5565b91506124b982612452565b604082019050919050565b600060208201905081810360008301526124dd816124a1565b9050919050565b600081905092915050565b60006124fa82611baa565b61250481856124e4565b9350612514818560208601611bc6565b80840191505092915050565b600061252c82856124ef565b915061253882846124ef565b91508190509392505050565b7f4552433732313a207472616e736665722066726f6d20696e636f72726563742060008201527f6f776e6572000000000000000000000000000000000000000000000000000000602082015250565b60006125a0602583611bb5565b91506125ab82612544565b604082019050919050565b600060208201905081810360008301526125cf81612593565b9050919050565b7f4552433732313a207472616e7366657220746f20746865207a65726f2061646460008201527f7265737300000000000000000000000000000000000000000000000000000000602082015250565b6000612632602483611bb5565b915061263d826125d6565b604082019050919050565b6000602082019050818103600083015261266181612625565b9050919050565b7f4552433732313a20617070726f766520746f2063616c6c657200000000000000600082015250565b600061269e601983611bb5565b91506126a982612668565b602082019050919050565b600060208201905081810360008301526126cd81612691565b9050919050565b7f45524337323155524953746f726167653a2055524920736574206f66206e6f6e60008201527f6578697374656e7420746f6b656e000000000000000000000000000000000000602082015250565b6000612730602e83611bb5565b915061273b826126d4565b604082019050919050565b6000602082019050818103600083015261275f81612723565b9050919050565b60008190508160005260206000209050919050565b60006020601f8301049050919050565b600082821b905092915050565b6000600883026127c87fffffffffffffffffffffffffffffffffffffffffffffffffffffffffffffffff8261278b565b6127d2868361278b565b95508019841693508086168417925050509392505050565b6000819050919050565b600061280f61280a61280584611c5c565b6127ea565b611c5c565b9050919050565b6000819050919050565b612829836127f4565b61283d61283582612816565b848454612798565b825550505050565b600090565b612852612845565b61285d818484612820565b505050565b5b818110156128815761287660008261284a565b600181019050612863565b5050565b601f8211156128c65761289781612766565b6128a08461277b565b810160208510156128af578190505b6128c36128bb8561277b565b830182612862565b50505b505050565b600082821c905092915050565b60006128e9600019846008026128cb565b1980831691505092915050565b600061290283836128d8565b9150826002028217905092915050565b61291b82611baa565b67ffffffffffffffff81111561293457612933611ea7565b5b61293e82546121ff565b612949828285612885565b600060209050601f83116001811461297c576000841561296a578287015190505b61297485826128f6565b8655506129dc565b601f19841661298a86612766565b60005b828110156129b25784890151825560018201915060208501945060208101905061298d565b868310156129cf57848901516129cb601f8916826128d8565b8355505b6001600288020188555050505b505050505050565b7f4552433732313a207472616e7366657220746f206e6f6e20455243373231526560008201527f63656976657220696d706c656d656e7465720000000000000000000000000000602082015250565b6000612a40603283611bb5565b9150612a4b826129e4565b604082019050919050565b60006020820190508181036000830152612a6f81612a33565b9050919050565b7f4e487b7100000000000000000000000000000000000000000000000000000000600052601160045260246000fd5b6000612ab082611c5c565b9150612abb83611c5c565b9250828203905081811115612ad357612ad2612a76565b5b92915050565b6000612ae482611c5c565b9150612aef83611c5c565b9250828201905080821115612b0757612b06612a76565b5b92915050565b600081519050919050565b600082825260208201905092915050565b6000612b3482612b0d565b612b3e8185612b18565b9350612b4e818560208601611bc6565b612b5781611bf0565b840191505092915050565b6000608082019050612b776000830187611cf1565b612b846020830186611cf1565b612b916040830185611e07565b8181036060830152612ba38184612b29565b905095945050505050565b600081519050612bbd81611b1b565b92915050565b600060208284031215612bd957612bd8611ae5565b5b6000612be784828501612bae565b91505092915050565b7f4e487b7100000000000000000000000000000000000000000000000000000000600052601260045260246000fd5b7f4552433732313a206d696e7420746f20746865207a65726f2061646472657373600082015250565b6000612c55602083611bb5565b9150612c6082612c1f565b602082019050919050565b60006020820190508181036000830152612c8481612c48565b9050919050565b7f4552433732313a20746f6b656e20616c7265616479206d696e74656400000000600082015250565b6000612cc1601c83611bb5565b9150612ccc82612c8b565b602082019050919050565b60006020820190508181036000830152612cf081612cb4565b905091905056fea26469706673582212203f3e2aeb64c3a7f8fcba7dee45fdd071e07ccb3f93946475a2ae6275fd9a277564736f6c63430008110033",
  "linkReferences": {},
  "deployedLinkReferences": {}
}